:020000040800F2
:1000000030BD0020190500081D0300081F0300086B
:1000100023030008270300082B030008000000004A
:100020000000000000000000000000002F03000896
:100030003103000800000000330300083503000806
:1000400033050008330500083305000833050008B0
:10005000330500083305000821930008778D000858
:100060003305000833050008330500083305000890
:100070003305000833050008330500083305000880
:100080003305000833050008330500083305000870
:100090003305000833050008330500083305000860
:1000A0003305000833050008330500083305000850
:1000B000330500086B8F0008619B000833050008BA
:1000C0003305000833050008330500083305000830
:1000D00033050008232B000833050008330500080A
:1000E0003305000833050008330500083305000810
:1000F0003305000833050008330500083305000800
:1001000033050008330500083305000833050008EF
:1001100033050008330500083305000833050008DF
:1001200033050008330500083305000833050008CF
:1001300000F002F800F06BF80AA090E8000C82448E
:100140008344AAF10107DA4501D100F060F8AFF26B
:10015000090EBAE80F0013F0010F18BFFB1A43F0A5
:10016000010318478C7D0100AC7D01000A444FF06B
:10017000000C10F8013B13F0070408BF10F8014B06
:100180001D1108BF10F8015B641E05D010F8016B4B
:10019000641E01F8016BF9D113F0080F1EBF10F8AF
:1001A000014BAD1C0C1B09D16D1E58BF01F801CBD2
:1001B000FAD505E014F8016B01F8016B6D1EF9D555
:1001C0009142D6D37047000000230024002500266A
:1001D000103A28BF78C1FBD8520728BF30C148BFAA
:1001E0000B607047642915F0BB85752915F0B8853B
:1001F000782915F0F185632916F03B80732916F0F4
:100200004080002070471FB51FBD10B510BD16F00F
:1002100085F81146FFF7F7FF00F008F816F0A3F88D
:1002200003B4FFF7F2FF03BC02F020FC02F0AEFBC8
:100230004FF4A06000F090F94FF4E13002F025FC9B
:1002400002F0DEFC02F0B2FC40F2CF214FF47A70F3
:1002500008F05EFE002141F61F4009F0E5F808F0C5
:10026000CBFD00200AF009FA01200AF006FA03E0AB
:100270004FF4966002F0C7FB0AF05FFB0028F7D14D
:1002800016A015F0FDFC01E00AF061FC1948807D24
:10029000022803D01748807DFF28F5D14FF4FA706B
:1002A00002F0B1FB4FF4FA7002F0ADFB0BF0D3F8A3
:1002B00013E0002002F0CDFC0446022C0AD10E48C7
:1002C000007800F0200018B10CA015F0D9FC01E076
:1002D0000BF0C1F80A2002F096FBEAE74C574950B0
:1002E00020496E69742053756363657373210D0A29
:1002F0000000000058AD0020C1010020554450C14D
:10030000ACBDD3D2D1BEADBDA8C1A22CB2BBC4DCA2
:10031000D6D8B8B4C1ACBDD30D0A0000704700BF39
:10032000FEE700BFFEE700BFFEE700BFFEE7704745
:1003300070477047704700000CB500200190009096
:100340006C48006840F480306A49086000BF694822
:10035000006800F4003000900198401C0190009863
:1003600018B90198B0F5A06FF1D16248006800F4A7
:10037000003010B10120009001E0002000900098B2
:10038000012843D15C48006840F010005A490860D9
:100390000846006820F0030008600846006840F046
:1003A0000200086053484068524948600846406867
:1003B00048600846406840F48060486008464068ED
:1003C00020F47C1048600846406840F4E81048601B
:1003D0000846006840F08070086000BF454800682B
:1003E00000F000700028F9D04248406820F0030077
:1003F000404948600846406840F00200486000BF3D
:100400003C48406800F00C000828F9D10CBD10B53C
:10041000FFF792FF10BD10B53648006840F00100AC
:10042000344908600846406834490840314948600A
:1004300008460068324908402E49086008460068AE
:1004400020F4802008600846406820F4FE004860E0
:100450004FF41F008860FFF7DAFF4FF00060294972
:10046000086010BD10B5002100200022214B5B6800
:1004700003F00C0121B1042906D0082928D107E096
:10048000214B224C236027E01F4B204C236023E0AC
:10049000184B5B6803F47010164B5B6803F48032F2
:1004A000022303EB904022B9194B4343174C2360BE
:1004B0000DE0104B5B6803F4003323B1144B43434E
:1004C000124C236003E0104B4343104C236003E0C5
:1004D0000D4B0E4C236000BF00BF064B5B68C3F39F
:1004E00003130C4CE15C094B1B68CB40074C2360A9
:1004F00010BD000000100240002002400000FFF884
:10050000FFFFF6FE08ED00E000127A000000002078
:1005100000093D00040000200948804709480047C1
:10052000FEE7FEE7FEE7FEE7FEE7FEE7FEE7FEE7A3
:10053000FEE7FEE704480549054A064B7047000000
:10054000170400083101000830B7002030BD00203A
:1005500030B9002030B9002031490143314A1160DF
:10056000704770B5002100230F22C47804B32D4CCE
:10057000246804F4E064C4F5E064210AC1F10403D2
:10058000CA40447804FA03F18478144021430901F5
:10059000254C0678A155047804F01F050124AC40D1
:1005A00005786D11AD0005F1E025C5F8004109E0C1
:1005B000047804F01F050124AC401C4D0678761128
:1005C00045F8264070BD1A4A0A400243154B1B1FCE
:1005D0001A60704739B1134A121D12680243114B59
:1005E0001B1D1A6006E00F4A121D126882430D4B54
:1005F0001B1D1A607047042808D14FF0E0210969DB
:1006000041F004014FF0E022116107E04FF0E021DA
:10061000096921F004014FF0E022116170470000E8
:100620000000FA050CED00E000E400E080E100E0ED
:1006300080FFFF1FDF48006840F00100DD490860CF
:1006400008464068DC490840DA49486008460068C6
:10065000DA490840D74908600846006820F480203D
:1006600008600846406820F4FE0048604FF41F0010
:1006700088607047CF49096821F48031CD4A116004
:100680001146096821F480211160B0F5803F03D044
:10069000B0F5802F0ED106E0C649096841F48031DB
:1006A000C44A116007E0C349096841F4A021C14A66
:1006B000116000E000BF00BF704710B50146002286
:1006C000002300204A11012A02D1BA4C236806E017
:1006D000022A02D1B74C236A01E0B64C636A01F0EA
:1006E0001F02012494401C400CB1012000E00020B6
:1006F00010BD38B5002000900024002500BF312037
:10070000FFF7DBFF05460098401C00900098B0F50D
:10071000A06F01D0002DF2D03120FFF7CEFF08B13D
:10072000012400E00024204638BD01460020A14AF3
:10073000106820F0F80040EAC10010607047A0493E
:1007400008607047024600209A4B586820F47C10DD
:1007500042EA01031843974B58607047984908666E
:10076000704701460020934A506820F00300084378
:10077000506070478F48406800F00C007047014699
:1007800000208C4A506820F0F00008435060704709
:1007900001460020874A506820F4E060084350601A
:1007A000704701460020834A506820F4605040EAB8
:1007B000C1005060704729B17E4A527A02437D4B96
:1007C0005A7204E07B4A527A82437A4B5A727047DB
:1007D0007B49D8310860704701460020754A50684F
:1007E00020F440400843506070470021714A203295
:1007F0001170704A82F82010012802D004280AD112
:1008000004E001216B4A2032117005E00521694A9C
:100810002032117000E000BF00BF704769490860D6
:1008200070476449096A0143624A11627047654929
:1008300044390860704730B50021002200240023AD
:100840005C4D6D6805F00C0121B1042905D0082923
:1008500023D105E05C4D056022E05B4D05601FE0A3
:10086000544D6D6805F47012524D6D6805F4803476
:10087000022505EB92421CB9544D554305600BE02F
:100880004C4D6D6805F400351DB1504D5543056064
:1008900002E04D4D5543056002E04B4D056000BF41
:1008A00000BF444D6D6805F0F0010909484D6B5CCF
:1008B0000568DD4045603F4D6D6805F4E061090A5B
:1008C000434D6B5C4568DD4085603A4D6D6805F4CD
:1008D0006051C90A3E4D6B5C4568DD40C560354DD1
:1008E0006D6805F44041890B3A4D6B5CC568B5FBFA
:1008F000F3F5056130BD29B12E4A526902432D4BF3
:100900005A6104E02B4A526982432A4B5A6170476C
:1009100029B1284A92690243264B9A6104E0254A8C
:1009200092698243234B9A61704729B1214AD26967
:100930000243204BDA6104E01E4AD26982431D4B18
:10094000DA61704729B11B4AD2680243194BDA6059
:1009500004E0184AD2688243164BDA60704729B126
:10096000144A12690243134B1A6104E0114A1269D6
:100970008243104B1A617047124940390860704732
:100980000F49C86470470B49C87170470948406AED
:1009900040F0807007494862704701460020054AD0
:1009A00092680A400AB1012000E000207047014926
:1009B00088727047001002400000FFF8FFFFF6FE4B
:1009C000000042428004424200127A0000093D00C9
:1009D000140000202400002010B50446BE488442C4
:1009E00008D101218014FFF7ADFF0021A014FFF70B
:1009F000A9FF16E0B948844208D101210014FFF78D
:100A0000AEFF00212014FFF7AAFF0AE0B448844299
:100A100007D10121C013FFF7A2FF0021E013FFF768
:100A20009EFF10BD10B50022028802F441520B88CF
:100A30004C8823438C882343CC8823430C8923434D
:100A40004C8923438C892343CC8923431A43028056
:100A5000838B4FF2FF74234083830B8A038210BD84
:100A60002DE9F04F85B005460C464FF000090227EE
:100A70004FF000084FF0010B0026B246A88B4FF252
:100A800040010840A88302202884B5F81C90A06883
:100A9000022801D100BF38E0A08810B94FF0010B47
:100AA00001E04FF0020B8D48854200D100E000BF0D
:100AB0006846FFF7C0FEDDF800A0E088B0F5007FD3
:100AC0000AD14FEA1A2000EB80004000A168B0FB79
:100AD000F1F0401D86B20BE04FEA4B10BAFBF0F08C
:100AE00000EB80004000A168B0FBF1F0401D86B231
:100AF0000A20B6FBF0F606F00108A6EB0800C0F3EA
:100B00004F074FF6FF7000EA0828022F01DBFF2F86
:100B100002DD02274FF00008E08840EA0800384371
:100B20002884A088A1890843618808432188084354
:100B300040F4006040EA0909A5F81C9005B0BDE842
:100B4000F08F0021018041808180C180018141813D
:100B50008181C1810721018270470021018041808C
:100B60008180C1800221816000218181704721B193
:100B7000028842F04002028004E002884FF6BF7310
:100B80001A400280704721B1828B42F480628283D6
:100B900004E0828B4FF6FF331A408283704730B5F2
:100BA000002400230C110125A540ABB21AB18588A1
:100BB0001D43858002E085889D43858030BD1AB144
:100BC00083880B43838002E083888B438380704754
:100BD000818170470146888970474FF6FF629142D4
:100BE00004D0028842F48072028004E002884FF64A
:100BF000FF631A400280704721B1828842F00402EC
:100C0000828004E082884FF6FB731A40828070472E
:100C100002884FF2FF731A40028002880A43028062
:100C20007047018841F480510180704721B10288EA
:100C300042F40052028004E002884DF6FF731A402D
:100C40000280704702460020012901D0108B00E08D
:100C5000908A70470146088A7047B1F5804F04D1E9
:100C6000028842F48042028004E002884BF6FF735F
:100C70001A40028070470246002013890B400BB1D6
:100C8000012000E000207047CA4302817047F0B5A0
:100C90000246002000240023002501F00F07012652
:100CA000BE40B4B20B1101269E40B3B2968806EA4C
:100CB00003051689264016B10DB1012000E0002081
:100CC000F0BD10B5002201F00F040123A3409AB239
:100CD000D343038110BD00000030014000380040C4
:100CE000003C004010B50446FB48844209D1012174
:100CF0008803FFF727FE00214FF48040FFF722FE14
:100D000032E0F648844209D101214804FFF727FE6A
:100D100000214FF40030FFF722FE25E0F048844226
:100D200009D101218804FFF71AFE00214FF4802029
:100D3000FFF715FE18E0EB48844209D10121C804F1
:100D4000FFF70DFE00214FF40020FFF708FE0BE037
:100D5000E548844208D101210805FFF700FE002183
:100D60004FF48010FFF7FBFD10BD2DE9F04786B072
:100D700005460E460024A24600BFA1460027B089C2
:100D800000B100BF2F462C8A4CF6FF700440F0885B
:100D900004432C82AC894EF6F3100440B0883189AC
:100DA0000843718908430443AC81AC8A4FF6FF4085
:100DB0000440B0890443AC8201A8FFF73CFDC6485B
:100DC000874202D1DDF810A001E0DDF80CA0A8896F
:100DD00000F4004040B10AEBCA0000EB0A10316891
:100DE0004900B0FBF1F807E00AEBCA0000EB0A107B
:100DF00031688900B0FBF1F86420B8FBF0F0040121
:100E00002009642101FB1089A88900F4004040B149
:100E1000322000EBC900B0FBF1F000F00700044302
:100E200008E0322000EB09106421B0FBF1F000F083
:100E30000F0004432C8106B0BDE8F0874FF4165133
:100E4000016000218180C18001810C21418100214C
:100E50008181704710B502460020108A4FF2FF03CF
:100E600018400B884C8823438C882343CC88234329
:100E70001843108210BD0021018041808180C18013
:100E8000704721B1828942F40052828104E0828954
:100E90004DF6FF731A4082817047F0B50346002477
:100EA00000260025002040F66A17B94200D100BF95
:100EB0001846C1F3421401F01F06012707FA06F590
:100EC000012C01D10C3004E0022C01D1103000E0E3
:100ED00014301AB107682F43076002E00768AF4378
:100EE0000760F0BD1AB1838A0B43838202E0838AD4
:100EF0008B4383827047028A4FF6F0731A40028256
:100F0000028A0A430282704782894FF2FF731A40B5
:100F1000828182890A438281704721B1828942F0AD
:100F20000202828104E082894FF6FD731A408281B9
:100F30007047028A4FF6DF731A400282028A0A4320
:100F40000282704721B1028A42F48042028204E0A8
:100F5000028A4BF6FF731A4002827047C1F30802FF
:100F60008280704701468888C0F3080070478189F5
:100F700041F0010181817047028BD2B20283028B62
:100F800042EA012202837047028B02F47F4202830D
:100F9000028B0A430283704721B1828A42F0200209
:100FA000828204E0828A4FF6DF731A4082827047A1
:100FB00021B1828A42F01002828204E0828A4FF6D6
:100FC000EF731A408282704721B1828A42F0080290
:100FD000828204E0828A4FF6F7731A408282704759
:100FE00021B1828942F40042828103E08289C2F306
:100FF0000E028281704721B1828A42F400628282AD
:1010000004E0828A4FF2FF731A4082827047828A1C
:101010004FF6FB731A408282828A0A4382827047AB
:1010200021B1828A42F00202828204E0828A4FF673
:10103000FD731A408282704702460020B1F5007F9E
:1010400000D100BF13880B400BB1012000E000204D
:10105000704701F40072B2F5007F00D100BFCA43AF
:101060000280704770B5024600240023002500204E
:1010700040F66A16B14200D100BFC1F3421501F03B
:101080001F03012606FA03F3012D02D1968933408E
:1010900006E0022D02D1168A334001E0968A3340E1
:1010A0000C12012606FA04F41688344013B10CB170
:1010B000012000E0002070BD10B50022002340F6A2
:1010C0006A14A14200D100BF0A1201249440A3B2C5
:1010D000DC43048010BD00000038014000440040A3
:1010E00000480040004C00400050004010B504464D
:1010F000CC48844208D101210420FFF723FC0021C1
:101100000420FFF71FFC46E0C748844208D10121B4
:101110000820FFF717FC00210820FFF713FC3AE036
:10112000C248844208D101211020FFF70BFC0021A6
:101130001020FFF707FC2EE0BD48844208D10121B2
:101140002020FFF7FFFB00212020FFF7FBFB22E020
:10115000B848844208D101214020FFF7F3FB002169
:101160004020FFF7EFFB16E0B348844208D101218D
:101170008020FFF7E7FB00218020FFF7E3FB0AE078
:10118000AE48844207D101218015FFF7DBFB002127
:10119000A015FFF7D7FB10BD10B501210846FFF7DA
:1011A000D1FB00210120FFF7CDFB10BD2DE9F0415F
:1011B000024600250026002000230024002791F885
:1011C00003C00CF00F0591F803C00CF0100CBCF13B
:1011D000000F03D091F802C04CEA050591F800C059
:1011E000BCF1000F31D0146800202BE04FF0010C4F
:1011F0000CFA00F3B1F800C00CEA03069E4220D1BD
:1012000083004FF00F0C0CFA03F7BC4305FA03FC04
:101210004CEA040491F803C0BCF1280F06D14FF04A
:10122000010C0CFA00FCC2F814C00AE091F803C0EB
:10123000BCF1480F05D14FF0010C0CFA00FCC2F8CC
:1012400010C0401C0828D1D31460B1F800C0BCF114
:10125000FF0F34DD546800202EE000F1080C4FF041
:10126000010808FA0CF3B1F800C00CEA03069E422C
:1012700021D183004FF00F0C0CFA03F7BC4305FAA1
:1012800003FC4CEA040491F803C0BCF1280F05D11B
:1012900000F1080C08FA0CF8C2F8148091F803C0A9
:1012A000BCF1480F07D100F1080C4FF0010808FA13
:1012B0000CF8C2F81080401C0828CED35460BDE85A
:1012C000F0814FF6FF710180022181700421C1700D
:1012D00070470246002093680B400BB1012000E0EC
:1012E000002070470146886880B27047024600209F
:1012F000D3680B400BB1012000E00020704701468D
:10130000C86880B2704701617047416170470AB197
:10131000016100E041617047C16070474FF4803265
:101320000A438261816182618269826970470246F3
:101330000020434B18684FF68073184040EA0210B3
:1013400008433F4B186070473E49C8617047F0B58D
:101350000A46002300240021002500F00046B6F1D3
:10136000004F02D1364EF16901E0354E7168C0F38D
:10137000034583B200F44016B6F5401F08D121F0B2
:1013800070612F4E766826F070662D4F7E6012E0F9
:1013900000F48016B6F5801F06D1032606FA05F480
:1013A000A14341F0706106E0460D360103FA06F6EE
:1013B000B14341F0706122B1460D360103FA06F6E1
:1013C000314300F00046B6F1004F02D11C4EF161EE
:1013D00001E01B4E7160F0BD30B500228B071C0F81
:1013E0000F2303FA04F2164B08338C1053F8243001
:1013F0009343134C08348D1044F8253023468C1049
:1014000053F824308C07240F00FA04F423430C4CC7
:1014100008348D1044F8253030BD0A49DC310860AD
:101420007047000000080140000C0140001001401E
:101430000014014000180140001C01400020014040
:10144000000001400000204230B943F2DB0281007D
:10145000A1F1C0410A6005E043F2D2028100A1F18E
:10146000C0410A606FF07042411C8900A1F1C04187
:101470000A608100A1F1C041C1F804217047102821
:101480000AD118214FF020421166402151664FF0D9
:10149000FC319166D16610E01821F74A11604021B5
:1014A0004FF02042C2F884104FF0FC31F24A08326B
:1014B00011604FF02042C2F88C1070471820EE499E
:1014C0002031086000200906C1F8A4004FF0FC306C
:1014D000E94928310860091D0860091D0860704746
:1014E000D0E901121143C2681143026911434269F4
:1014F000114382691143C2691143026A1143426A6E
:101500001143826A1143C26A1143026B114302689C
:101510009200A2F1C0421160816808290BD10168D4
:101520008900A1F1C041096841F0400201688900C9
:10153000A1F1C0410A60416B0968426B526841EAFF
:101540000211426B926841EA0221426B928941EAA0
:101550000241426B128A41EA0251426B127D41EA1A
:101560000261426B926911430268521C9200A2F11F
:10157000C0421160C16AB1F5804F1BD1816B09680F
:10158000826B526841EA0211826B926841EA022141
:10159000826B128A41EA0251826B127D41EA02613A
:1015A000826B9269114302689200A2F1C042C2F8B4
:1015B000041107E06FF0704201688900A1F1C04199
:1015C000C1F80421704730B500210022002344688F
:1015D00044F0080485682C43C5682C4305692C43F6
:1015E000456944EA4524856944EA4531C46924686B
:1015F000C5696D6844EA0524C5692D8944EA054436
:10160000C5692D7B44EA0562046A2468056A6D6831
:1016100044EA0524056A2D8944EA0544056A2D7BC0
:1016200044EA05630468102C05D14FF0204421667C
:10163000A266E36608E0904C21604FF02044C4F8B5
:1016400088208D4C0C34236030BD016841F01001BE
:10165000426841EA4221826841EA4231864A2032A8
:101660001160C1680968C268526841EA0221C26813
:10167000128941EA0241C268127B41EA02617E4A54
:1016800028321160016909680269526841EA022141
:101690000269128941EA02410269127B41EA026150
:1016A000754A2C321160416909684269526841EA01
:1016B00002214269128941EA02414269127B41EAF0
:1016C00002614FF02042C2F8B01070470021016063
:1016D0000221416000218160C1600161416181613D
:1016E000C16101624FF48051416249008162002171
:1016F000C16201630F21426B1160426B5160FF2197
:10170000426B91600F21426BD160426B1161426B61
:1017100051610021426B91610F21826B1160826BDC
:101720005160FF21826B91600F21826BD160826BCF
:101730001161826B51610021826B916170471021B0
:101740000160002141608160C1600161416181618E
:10175000FC21C2691160C2695160C2699160C269AD
:10176000D160026A1160026A5160026A9160026A85
:10177000D16070470021016041608160FC21C26836
:101780001160C2685160C2689160C268D16002692C
:10179000116002695160026991600269D160426919
:1017A000116042695160426991604269D16070473D
:1017B00051B18200A2F1C042126842F001038200DE
:1017C000A2F1C042136009E08200A2F1C042126897
:1017D0002A4B1A408300A3F1C0431A60704799B1A5
:1017E000102808D14FF02042126E42F004024FF050
:1017F00020431A661DE0204A126842F004024FF0AE
:101800002043C3F8802014E0102809D14FF0204273
:10181000126E1A4BDB1E1A404FF020431A6608E086
:10182000154A1268154BDB1E1A404FF02043C3F8CF
:101830008020704748B110492031096841F0040107
:101840004FF02042C2F8A01009E00B49203109688E
:101850000A4AD21E11404FF02042C2F8A010704731
:10186000B9B110280CD14FF02042126E42F0400264
:101870004FF020431A661FE0800000A0FEFF0F001B
:10188000724A126842F040024FF02043C3F88020B1
:1018900012E0102808D14FF02042126E6C4B1A4013
:1018A0004FF020431A6607E0684A1268684B1A40F6
:1018B0004FF02043C3F880207047014600201029D4
:1018C00003D14FF02042506F02E0604A143210689A
:1018D000704710B5F2B1102807D14FF020435B6E6E
:1018E0000B434FF02044636632E0B0F5807F08D1AF
:1018F000564B1B1D1B680B434FF02044C4F884302B
:1019000026E0524B24331B680B434FF02044C4F8AD
:10191000A4301DE0102807D14FF020435B6E8B43AD
:101920004FF02044636613E0B0F5807F08D1474B49
:101930001B1D1B688B434FF02044C4F8843007E024
:10194000424B24331B688B434FF02044C4F8A4302F
:1019500010BD10B5024600200023102A03D14FF01D
:101960002044636E09E0B2F5807F03D1374C241D1B
:10197000236802E0354C2434236803EA01040CB1E7
:10198000012000E0002010BD102807D14FF02042B8
:10199000526E8A434FF020435A6613E0B0F5807FC1
:1019A00008D12A4A121D12688A434FF02043C3F817
:1019B000842007E0254A243212688A434FF02043EE
:1019C000C3F8A420704770B502460020002300240D
:1019D0000025102A03D14FF02046736E09E0B2F5BE
:1019E000807F03D1194E361D336802E0174E24362E
:1019F000336803EA010403EAD10514B10DB10120F3
:101A000000E0002070BD102808D14FF02042526E37
:101A100022EAD1024FF020435A6615E0B0F5807FEC
:101A200009D10A4A121D126822EAD1024FF020435E
:101A3000C3F8842008E0054A2432126822EAD10261
:101A40004FF02043C3F8A42070470000800000A09E
:101A5000BFFF0F0010B50446FE48844208D10121A3
:101A6000C014FEF76FFF0021E014FEF76BFFC4E027
:101A7000B4F1804F08D101210846FEF770FF002124
:101A80000120FEF76CFFB8E0F348844208D1012141
:101A90000220FEF764FF00210220FEF760FFACE0A9
:101AA000EE48844208D101210420FEF758FF0021AE
:101AB0000420FEF754FFA0E0E948844208D1012148
:101AC0000820FEF74CFF00210820FEF748FF94E0B5
:101AD000E448844208D101211020FEF740FF002194
:101AE0001020FEF73CFF88E0DF48844208D1012146
:101AF0002020FEF734FF00212020FEF730FF7CE09D
:101B0000DA48844208D101214014FEF71BFF00216E
:101B10006014FEF717FF70E0D548844209D1012117
:101B2000C804FEF70FFF00214FF40020FEF70AFF64
:101B300063E0D048844209D101210805FEF702FF85
:101B400000214FF48010FEF7FDFE56E0CA488442A3
:101B500009D101214805FEF7F5FE00214FF40010E0
:101B6000FEF7F0FE49E0C548844208D1012140203B
:101B7000FEF7F5FE00214020FEF7F1FE3DE0C048F3
:101B8000844208D101218020FEF7E9FE0021802057
:101B9000FEF7E5FE31E0BB48844208D10121801503
:101BA000FEF7DDFE0021A015FEF7D9FE25E0B648C0
:101BB000844209D101210804FEF7C4FE00214FF43C
:101BC0008030FEF7BFFE18E0B048844209D1012101
:101BD0004804FEF7B7FE00214FF40030FEF7B2FED6
:101BE0000BE0AB48844208D101218804FEF7AAFE2D
:101BF00000214FF48020FEF7A5FE10BD00220288D0
:101C0000944B98420ED0994B98420BD0B0F1804F34
:101C100008D0914B984205D0904B984202D0904BFF
:101C2000984204D14FF68F731A404B881A438D4B5C
:101C3000984207D08C4B984204D04FF6FF431A408D
:101C4000CB881A4302808B8883850B880385814B60
:101C500098420BD0854B984208D08B4B984205D0C8
:101C60008A4B984202D08A4B984201D10B7A038664
:101C700001238382704770B5002400220023058C65
:101C80004FF6FE7635400584028C8388048B4FF630
:101C90008F752C40B51E2C400D882C43751E2A4094
:101CA0000D892A434D882A436A4DA8420BD06F4DB7
:101CB000A84208D0744DA84205D0744DA84202D065
:101CC000734DA84213D14FF6F7752A404D892A4328
:101CD0004FF6FB752A408D882A434FF6FF652B404F
:101CE0004FF6FF552B408D892B43CD892B438380A5
:101CF0000483CD888586028470BD70B500240022DF
:101D00000023058C4FF6EF7635400584028C8388DE
:101D1000048B48F6FF752C404FF6FF452C400D888C
:101D20004FF6FF7606EA05252C434FF6DF752A406D
:101D30000D8906EA05152A434D8806EA05152A434A
:101D4000444DA84202D0494DA8421DD14FF67F759F
:101D50002A404D894FF6FF7606EA05152A434FF6CD
:101D6000BF752A408D8806EA05152A434FF6FF35D0
:101D70002B404FF2FF752B408D8906EA85052B43DA
:101D8000CD8906EA85052B4383800483CD880587AA
:101D9000028470BD70B5002400220023058C4FF62C
:101DA000FF6635400584028C8388848B4FF68F75DF
:101DB0002C404FF6FC752C400D882C434FF6FF55F8
:101DC0002A400D894FF6FF7606EA05252A434D88FD
:101DD00006EA05252A431F4DA84202D0234DA842FA
:101DE0001DD14FF2FF752A404D894FF6FF7606EA66
:101DF00005252A434FF6FF352A408D8806EA05253A
:101E00002A434EF6FF752B404DF6FF752B408D890A
:101E100006EA05152B43CD8906EA05152B43838079
:101E20008483CD888587028470BD70B5002200232D
:101E30000024058C4EF6FF7635400584038C84889B
:101E4000828B48F6FF752A404FF6FF452A400D88E1
:101E500020E00000002C0140000400400008004089
:101E6000000C00400010004000140040003401400D
:101E7000004C014000500140005401400018004057
:101E8000001C004000200040004001400044014090
:101E9000004801404FF6FF7606EA05252A434DF635
:101EA000FF752B400D8906EA05352B434D8806EA60
:101EB00005352B43FA4DA84202D0FA4DA84208D16D
:101EC0004BF6FF752C408D894FF6FF7606EA851597
:101ED0002C4384808283CD88A0F84050038470BD59
:101EE000828B4FF2FF331A408283828B4FF6FF734F
:101EF00003EA01231A4382837047F0B50C46154666
:101F0000002200210026078C4EF6FF7C07EA0C0712
:101F10000784828B018C4FF6FF7707EA043640F680
:101F2000FF473A404FF6FF7707EA05273A434FF657
:101F3000FF7707EA03373A43D94FB8420ED0D94F5B
:101F4000B8420BD0B0F1804F08D0D74FB84205D07F
:101F5000D64FB84202D0D64FB84206D14DF6FF77E1
:101F6000394046F48057394305E047F6FF5739407A
:101F700044F48057394382830184F0BD828B4FF64D
:101F8000F3731A408283828B0A4382837047F0B5D1
:101F90000C461546002200210026078C4FF6FF6CE8
:101FA00007EA0C070784828B018C4FF6FF7707EA5C
:101FB00004264FF60C773A404FF6FF7707EA0317EF
:101FC0002F433A43B64FB8420ED0B64FB8420BD06B
:101FD000B0F1804F08D0B44FB84205D0B34FB842EB
:101FE00002D0B34FB84206D14FF6FF57394046F4FE
:101FF0008077394305E04FF2FF57394044F480774A
:10200000394382830184F0BD028B4FF2FF331A40C3
:102010000283028B4FF6FF7303EA01231A43028304
:102020007047F0B50C461546002200210026078CAB
:102030004FF6EF7C07EA0C070784028B018C4FF602
:10204000FF7707EA041640F6FF473A404FF6FF775E
:1020500007EA03373A434FF6FF7707EA05273A4383
:102060008F4FB8420ED08F4FB8420BD0B0F1804F97
:1020700008D08D4FB84205D08C4FB84202D08C4F5B
:10208000B84206D14FF6DF77394046F010073943A2
:1020900005E04FF65F77394044F01007394302837B
:1020A0000184F0BD028B4FF6F3731A400283028B5A
:1020B0000A4302837047F0B50C4615460022002102
:1020C000068C4FF6FE773E400684028B018C4FF65D
:1020D0000C7632407E1C06EA03162E433243704EC5
:1020E000B0420ED06F4EB0420BD0B0F1804F08D04E
:1020F0006D4EB04205D06D4EB04202D06C4EB04233
:1021000006D14FF6FD76314044F00106314305E03B
:102110004FF6F576314044F00106314302830184E5
:10212000F0BD70B505460C465D4885420ED05D4851
:1021300085420BD0B5F1804F08D05B48854205D071
:102140005A48854202D05A48854200D100E000BF7B
:10215000208850B92389A28861882846FFF7ABFF01
:10216000E1882846FFF79EFF25E0208804280AD151
:102170002389A28861882846FFF753FFE188284613
:10218000FFF742FF17E0208808280AD12389A28898
:1021900061882846FFF7FBFEE1882846FFF7EEFE40
:1021A00009E02389A28861882846FFF7A6FEE18816
:1021B0002846FFF795FE70BD2DE9F04105460C4617
:1021C00000260127608808B9022600E00026A088C2
:1021D000012801D1022700E001272088A0B9238926
:1021E000A28861882846FFF766FFE1882846FFF746
:1021F00059FF23893A4631462846FFF712FFE18806
:102200002846FFF701FF13E02389A288618828464A
:10221000FFF707FFE1882846FFF7F6FE23893A46D5
:1022200031462846FFF747FFE1882846FFF73AFF87
:10223000BDE8F0810A884B881A438B881A43CB8803
:102240001A430B891A434B891A438B891A43A0F806
:10225000442070474FF6FF71818000210180C180CA
:102260004180017270470021018041808180C180DE
:10227000018141818181C1817047002101804180BC
:10228000012181800021C1800181704700210180EE
:1022900041808180C180018141818181704700003E
:1022A000002C0140003401400004004000080040C0
:1022B000000C004021B1028842F00102028004E0DB
:1022C00002884FF6FE731A400280704731B1B0F8B1
:1022D000442042F40042A0F8442005E0B0F8442035
:1022E000C2F30E02A0F8442070471AB183890B4351
:1022F000838102E083898B438381704781827047A9
:1023000041EA0203A0F8483070471AB183890B43B1
:10231000838102E083898B438381704701894FF673
:10232000F8721140018170470A46002101894FF679
:102330008F73194011430181704730B504460D4633
:1023400029462046FFF7F0FF208940F00700208152
:1023500030BD2DE9F04104460D4616461F46602D5E
:1023600006D13B46012231462046FFF75AFE05E0E2
:102370003B46012231462046FFF79DFE2946204676
:10238000FFF7D2FF208940F007002081BDE8F081EF
:1023900030B50C4600210189C9B24FF6FF7505EA38
:1023A0000325154325432943018130BD2DE9F04123
:1023B00005460E4617469846002443463A4631469F
:1023C0002846FFF7E5FF2C894FF6F870044044F0EB
:1023D00007044FF68F70044044F070042C81BDE870
:1023E000F081F0B504460D4616461F463B46324680
:1023F00029462046FFF7CCFF208940F48040208109
:10240000F0BD0185828270470A46002101884FF69F
:102410008F731940114301807047F0B50C46154683
:102420001E460021002200230189028B038C4FF6F7
:10243000F877394021434FF6FC473A4040F2011704
:102440003A434FF6DD773B404FF6FF7707EA061732
:102450002F433B43018102830384F0BD0A460021E0
:10246000018B4FF68F7319401143018370470A4661
:102470000021018B48F6FF7319404FF6FF7303EA02
:1024800002231943018370470A460021818B4FF6CE
:102490008F7319401143818370470A460021818B55
:1024A00048F6FF7319404FF6FF7303EA02231943FE
:1024B0008183704721B1028842F08002028004E0EB
:1024C00002884FF67F731A400280704721B18288DC
:1024D00042F00402828004E082884FF6FB731A40C7
:1024E0008280704721B1828842F00802828004E035
:1024F00082884FF6F7731A408280704721B1828834
:1025000042F00102828004E082884FF6FE731A4096
:10251000828070470A460021018B4FF6F7731940FD
:102520001143018370470A460021018B4FF2FF736C
:1025300019404FF6FF7303EA0223194301837047E2
:102540000A460021818B4FF6F773194011438183AE
:1025500070470A460021818B4FF2FF7319404FF6F6
:10256000FF7303EA02231943818370470A4600215F
:10257000018B4FF6FB7319401143018370470A46E4
:102580000021018B4FF6FF3319404FF6FF7303EA2A
:1025900002231943018370470A460021818B4FF6BD
:1025A000FB7319401143818370470A460021818BD8
:1025B0004FF6FF3319404FF6FF7303EA0223194326
:1025C000818370470A460021018B4FF67F731940C3
:1025D0001143018370470A460021018BC1F30E01AC
:1025E0004FF6FF7303EA02231943018370470A463B
:1025F0000021818B4FF67F7319401143818370470F
:102600000A460021818BC1F30E014FF6FF7303EAE6
:1026100002231943818370470A460021018C4FF63B
:10262000FD7319401143018470470A460021018C53
:102630004FF6F77319401143018470470A46002191
:10264000018C4FF6DF7319404FF6FF7303EA021354
:102650001943018470470A460021018C4FF67F73AD
:1026600019404FF6FF7303EA0213194301847047C0
:102670000A460021018C4FF6FF5319404FF6FF73B5
:1026800003EA02231943018470470A460021018CA2
:102690004FF2FF7319404FF6FF7303EA0223194309
:1026A000018470470A460021018C4DF6FF731940E2
:1026B0004FF6FF7303EA023319430184704730B5C4
:1026C000002301248C40A3B2048C9C430484048C1A
:1026D00002FA01F5ADB22C43048430BD30B50023BD
:1026E00004248C40A3B2048C9C430484048C02FA1E
:1026F00001F5ADB22C43048430BD70B50346002013
:1027000000241846183001258D40ACB21D8CA5431D
:102710001D8409B1082909D100EB6100056825F085
:10272000700505600568154305600EE00D1FC5F3D3
:102730004E052844056825F4E045056005684FF618
:10274000FF7606EA02263543056070BD21B1028896
:1027500042F00202028004E002884FF6FD731A4044
:102760000280704721B1028842F00402028004E036
:1027700002884FF6FB731A400280704721B18288AD
:1027800042F08002828004E082884FF67F731A4014
:102790008280704702884FF6F7731A4002800288E1
:1027A0000A430280704782884FF68F731A408280F6
:1027B00082880A438280704702894FF6F8731A4074
:1027C000028102890A430281704702894FF67F73B2
:1027D0001A40028102890A4302817047818470474E
:1027E0008185704781867047018770478187704770
:1027F000A0F84010704702884FF6FF431A4002804D
:1028000002880A43028070470146888E704701465D
:10281000088F70470146888F70470146B1F8400025
:1028200070470146888C70470146088D7047024604
:102830000020138A0B400BB1012000E000207047FC
:10284000CA430282704730B50246002000230024AC
:10285000158A05EA0103958905EA010413B10CB153
:10286000012000E0002030BDCA4302827047000012
:10287000002044490860091D0860091D0860091D01
:10288000086041483F4914310860704700213D49C4
:102890008279002A3AD00A46126803689A430B46A6
:1028A0001A600A1D126803689A430B1D1A600279A8
:1028B00011440A6803681A430A60324A08321268EF
:1028C00003689A432F4B08331A601A1D1268036875
:1028D0009A432C4B0C331A604279102A0ED11A1FDE
:1028E000126803681A43274B08331A601A1D1268CE
:1028F00003681A43234B0C331A600DE021494279D7
:1029000011440A6803681A430A6005E00279114419
:102910000A6803689A430A607047002101600171E8
:102920000C214171002181717047164910310968ED
:102930000143144A10321160704701460020114AC9
:10294000143212680A400AB1012000E000207047EA
:102950000C49143108607047014600200022094BE1
:102960001B6803EA0102074B14331B680B4013B1C9
:102970000AB1012000E000207047024914310860CC
:102980007047000000040140FFFF0F0010B56FF01A
:102990000400FDF730FE2E4800682E49B0FBF1F030
:1029A0002D4908700846007800EB4001C1EBC010CB
:1029B0004FF6FF7101EAC0002849088010BD0146AA
:1029C000254A12784A434FF0E0235A6100229A6167
:1029D0001A46126942F001021A6100BF4FF0E0226C
:1029E000106900F001021AB100F48032002AF5D01B
:1029F0004FF0E022126922F001024FF0E0231A6149
:102A000000229A6170470146144A12884A434FF0E7
:102A1000E0235A6100229A611A46126942F00102CB
:102A20001A6100BF4FF0E022106900F001021AB1F4
:102A300000F48032002AF5D04FF0E022126922F033
:102A400001024FF0E0231A6100229A6170470000F2
:102A50000000002000127A00280000202A00002038
:102A600030BF704772B6704762B67047014600BF0C
:102A7000704700BF494A128802F04002002AF9D08C
:102A8000C2B2464B1B1D1A80704710B586B0044673
:102A9000012144F20400FDF73BFF4FF40070ADF854
:102AA000140003208DF8160018208DF8170005A9D2
:102AB0003B48FEF77BFB4FF48060ADF81400042028
:102AC0008DF8170005A93648FEF770FB25208DF814
:102AD000000003208DF801008DF8020001208DF820
:102AE00003006846FDF73DFD01940020ADF80800A5
:102AF000ADF80A00ADF80C00ADF810000C20ADF8F0
:102B00000E0001A92548FEF730F9012240F22551B7
:102B10002248FEF7C2F901212048FEF7B2F906B0BB
:102B200010BD10B540F225511C48FEF79BFA10B3BA
:102B30001A48FEF717FAC4B21A48008800F4004099
:102B4000C8B91848008800F4804060B10A2C03D04E
:102B500000201449088020E01248008840F400401A
:102B60001049088019E00D2C06D10E48008840F469
:102B700080400C49088010E00A480088C0F30D002E
:102B800009490C5407480088401C0649088008463B
:102B90000088C72801DD0020088010BD00380140F2
:102BA00000080140300000206002002010488069C9
:102BB00040F010000E4988610E4840686FF30B002A
:102BC0000C4948600846406840F2333108430949DF
:102BD00048600846C06820F4E060C86000200649EC
:102BE00008600649C1F8A40103490831086070472C
:102BF0000010024000100140A001224200002242C9
:102C000008B501211420FDF783FE01213748FEF7A6
:102C10009EFB4FF40040ADF8000048208DF8030003
:102C200069463348FEF7C2FA2020ADF8000048207C
:102C30008DF8030069462F48FEF7B8FA0120ADF879
:102C4000000028208DF8030069462948FEF7AEFAF7
:102C500008BD10B5044614B1012027490870264864
:102C6000007868B320212348FEF733FB58B14FF4B6
:102C700000411F48FEF72DFB28B101211C48FEF73B
:102C800028FB01281CD10A20FFF7BDFE00201A49AD
:102C9000087020211748FEF71CFB08B9012010BD61
:102CA0004FF400411248FEF714FB08B90220F6E782
:102CB00001210F48FEF70DFB012815D10320EEE797
:102CC00020210C48FEF705FB01280DD1C10308485F
:102CD000FEF7FFFA012807D101210548FEF7F9FAAE
:102CE00010B90120044908700020D8E70002300024
:102CF00000080140001001403200002010B50446D9
:102D00004FF48071FE48FEF700FB4FF40071FC4861
:102D1000FEF7FBFA2146FB48FEF7FEFA8021F84851
:102D2000FEF7F3FA8021F648FEF7EDFA4FF4007152
:102D3000F348FEF7E8FA10BD10B504464FF4807171
:102D4000EF48FEF7E0FA4FF40071ED48FEF7DDFAC8
:102D50002146EC48FEF7E0FA8021E948FEF7D5FA73
:102D60008021E748FEF7CFFA4FF40071E448FEF700
:102D7000CAFA10BD10B54FF08830E2490860091D4D
:102D800008600020DF490C3108608915DC48FEF737
:102D9000BAFA4FF40071DA48FEF7B7FA4021D84882
:102DA000FEF7B3FAD848808848F68911884202D1E4
:102DB0000220FFF704FED348FEF794FA04464021B0
:102DC000CF48FEF7A0FA4FF40071CD48FEF79BFA0A
:102DD0004FF03330CB490860091D08604FF6FF7093
:102DE000C8490C310860204610BD70B504460D4638
:102DF0002046FFF783FF4FF48071C148FEF783FA46
:102E00004FF40071BE48FEF780FA2946BD48FEF730
:102E100083FA8021BA48FEF778FA8021B848FEF795
:102E200072FA4FF40071B648FEF76DFA70BD10B536
:102E300004462046FFF762FFFFF79CFF10BD10B568
:102E4000B1490889FFF75AFF10BD10B504464FF489
:102E50008071AB48FEF757FA4FF40071A848FEF7AF
:102E600054FA2146A748FEF757FA8021A448FEF7F6
:102E70004CFA8021A248FEF746FA4FF40071A048B0
:102E8000FEF741FA10BD30B5014601F01F04C1F351
:102E90004513CA0AE50205EB43151544A8B230BD37
:102EA00070B504460D469848808849F24131884201
:102EB00005D09548808845F21031884275D19249F5
:102EC0004889FFF71BFF4FF480718D48FEF71BFA0E
:102ED0004FF400718A48FEF718FA21128948FEF76C
:102EE0001BFA80218648FEF710FA80218448FEF7FD
:102EF0000AFA4FF400718248FEF705FA4FF4807128
:102F00007F48FEF700FA4FF400717D48FEF7FDF9A7
:102F1000E1B27C48FEF700FA80217948FEF7F5F926
:102F200080217748FEF7EFF94FF400717448FEF7FF
:102F3000EAF975498889FFF7E1FE4FF4807170481E
:102F4000FEF7E1F94FF400716D48FEF7DEF9291242
:102F50006C48FEF7E1F980216948FEF7D6F9802137
:102F60006748FEF7D0F94FF400716548FEF7CBF9DA
:102F70004FF480716248FEF7C6F94FF40071604863
:102F8000FEF7C3F9E9B25F48FEF7C6F980215C4855
:102F9000FEF7BBF980215A48FEF7B5F94FF40071EE
:102FA0005748FEF7B0F928E1FFE75748808846F612
:102FB000040188427ED154488079012804D15248C6
:102FC0000088401E001B84B24F494889FFF796FED7
:102FD0004FF480714A48FEF796F94FF40071484863
:102FE000FEF793F921124748FEF796F980214448ED
:102FF000FEF78BF980214248FEF785F94FF4007106
:103000003F48FEF780F94FF480713D48FEF77BF9A9
:103010004FF400713A48FEF778F9E1B23948FEF70B
:103020007BF980213648FEF770F980213448FEF79D
:103030006AF94FF400713248FEF765F93249888920
:10304000FFF75CFE4FF480712D48FEF75CF94FF4FA
:1030500000712B48FEF759F929122A48FEF75CF94E
:1030600080212748FEF751F980212548FEF74BF9CA
:103070004FF400712248FEF746F94FF48071204862
:10308000FEF741F94FF400711D48FEF73EF9E9B231
:103090001C48FEF741F980211948FEF736F98021D6
:1030A0001748FEF730F94FF400711548FEF72BF979
:1030B000A3E0FFE71448808845F2105188427CD194
:1030C00011494889FFF71AFE4FF480710C48FEF74A
:1030D0001AF94FF400710A48FEF717F9211209484E
:1030E000FEF71AF980210648FEF70FF980210448FF
:1030F000FEF709F94FF400710148FEF704F905E005
:1031000000100140000C014028030020F8494989C3
:10311000491C88B2FFF7F2FD4FF48071F548FEF7C5
:10312000F2F84FF40071F348FEF7EFF8E1B2F2481D
:10313000FEF7F2F88021EF48FEF7E7F88021ED482E
:10314000FEF7E1F84FF40071EA48FEF7DCF8E849D1
:103150008889FFF7D3FD4FF48071E648FEF7D3F876
:103160004FF40071E348FEF7D0F82912E248FEF769
:10317000D3F88021DF48FEF7C8F88021DD48FEF74C
:10318000C2F84FF40071DB48FEF7BDF8D8498989D1
:10319000491C88B2FFF7B2FD4FF48071D548FEF7A5
:1031A000B2F84FF40071D348FEF7AFF8E9B2D24855
:1031B000FEF7B2F88021CF4800E00BE0FEF7A5F85B
:1031C0008021CC48FEF79FF84FF40071C948FEF704
:1031D0009AF812E0C6488079012804D1C4480088D2
:1031E000401E001B84B2C24948892146FFF7FDFDFD
:1031F000BF4988892946FFF7F8FD70BD2DE9F041E8
:1032000005460E46BA480088A84203DDB848408803
:10321000B04202DC0020BDE8F08131462846FFF7CD
:103220003FFEB348808849F2413188420BD0B04814
:10323000808846F60401884205D0AD48808845F272
:103240001031884203D12E20FFF758FD0DE0A84829
:10325000808845F21051884204D14FF43850FFF76E
:103260004DFD02E02220FFF749FD4FF08830A249D2
:103270000860091D08604FF6FF709F490C31086017
:1032800089159C48FEF73FF84FF400719948FEF706
:103290003CF840219748FEF738F80120FFF78FFBF4
:1032A00040219448FEF72FF840219248FEF72DF870
:1032B0000120FFF784FB9048FEF714F804464021F4
:1032C0008C48FEF720F88A48808849F241318842CC
:1032D0000BD08748808845F21031884205D0844859
:1032E000808845F21051884211D140218148FEF773
:1032F0000CF88148FDF7F6FF804640217D48FEF737
:1033000002F8E7B24FF6FF7000EA072711E07848AD
:10331000808846F6040188420BD140217548FDF7AC
:10332000F4FF40217348FDF7EEFF7348FDF7DAFF25
:1033300004464FF400716F48FDF7E5FF4FF033305E
:103340006D490860091D08604FF6FF706A490C312D
:1033500008606748808849F22531884216D0644861
:10336000808844F23551884210D061488088091F16
:1033700088420BD05E48808848F68911884205D083
:103380005B4880884BF20551884201D1204642E7D4
:103390005748808849F2413188420BD05448808890
:1033A00045F21031884205D05148808845F21051CD
:1033B000884207D1E012C002B91240EA411040EA47
:1033C000E82028E72046FFF75EFD24E710B54848CF
:1033D000808849F2413188420BD04548808846F6C2
:1033E0000401884205D04248808845F21031884265
:1033F00003D12920FFF782FC0FE03D48808845F289
:103400001051884204D14FF42450FFF777FC04E0B8
:1034100040F273110720FFF7E8FC10BD10B53448E7
:10342000808849F2413188420BD03148808846F685
:103430000401884205D02E48808845F21031884228
:1034400003D12820FFF75AFC0EE02948808845F276
:103450001051884204D14FF42050FFF74FFC03E095
:1034600000210720FFF7C1FC10BD2DE9F041054602
:10347000002400271E48807901281ED11C4880881E
:1034800046F60401884218D0082D15D2DFE805F071
:103490000406080A0C0E101206250DE007250BE0A5
:1034A000042509E0052507E0012505E0002503E0E6
:1034B000032501E0022500BF00BF0D48808849F2C6
:1034C0004131884211D00A48808846F6040188427A
:1034D0000BD00748808845F21031884205D0044857
:1034E000808845F2105188427ED1082D23D205E014
:1034F0002803002000100140000C0140DFE805F027
:103500000406090C0F12151800BF14E044F08004E3
:1035100011E044F040040EE044F0C0040BE044F03D
:10352000200408E044F0600405E044F0A00402E058
:1035300044F0E00400BF00BFFE48808845F210510F
:10354000884202D14FF4585700E03627F948808866
:1035500045F21031884207D0F648808845F2105174
:10356000884201D044F00804F248808846F60401FD
:10357000884201D144F0020421463846FFF735FC69
:1035800004F0200068B1EB480088EA494988884285
:1035900014DAE84806884088E649088008464680EC
:1035A0000CE0E4480088E3494988884206DDE148A8
:1035B00006884088DF49088008464680DD488088C4
:1035C00045F2105188427CD1DA494889FFF796FBD1
:1035D0004FF48071D848FDF796FE4FF40071D6483D
:1035E000FDF793FE002100E0FBE1D448FDF794FED7
:1035F0008021D148FDF789FE8021CF48FDF783FE69
:103600004FF40071CC48FDF77EFECA494989491C38
:1036100088B2FFF773FB4FF48071C748FDF773FE64
:103620004FF40071C448FDF770FE0021C348FDF758
:1036300073FE8021C048FDF768FE8021BE48FDF77B
:1036400062FE4FF40071BC48FDF75DFEB94949893F
:10365000891C88B2FFF752FB4FF48071B648FDF722
:1036600052FE4FF40071B448FDF74FFEB148008898
:10367000401EC0F30F21B148FDF74EFE8021AE4839
:10368000FDF743FE8021AC48FDF73DFE4FF400718D
:10369000A948FDF738FEA7494989C91C88B2FFF738
:1036A0002DFB4FF48071A448FDF72DFE4FF40071FF
:1036B000A148FDF72AFE9F480078401EC1B29F48EE
:1036C00000E098E0FDF728FE80219B48FDF71DFEF5
:1036D00080219948FDF717FE4FF400719648FDF7D9
:1036E00012FE94498889FFF709FB4FF480719248D4
:1036F000FDF709FE4FF400718F48FDF706FE00212B
:103700008E48FDF709FE80218B48FDF7FEFD8021E4
:103710008948FDF7F8FD4FF400718748FDF7F3FD88
:1037200084498989491C88B2FFF7E8FA4FF480710F
:103730008148FDF7E8FD4FF400717F48FDF7E5FD96
:1037400000217E48FDF7E8FD80217B48FDF7DDFD87
:1037500080217948FDF7D7FD4FF400717648FDF7D9
:10376000D2FD74498989891C88B2FFF7C7FA4FF4E2
:1037700080717148FDF7C7FD4FF400716E48FDF789
:10378000C4FD6C484088401EC0F30F216B48FDF714
:10379000C3FD80216848FDF7B8FD80216648FDF72C
:1037A000B2FD4FF400716448FDF7ADFD61498989B0
:1037B000C91C88B2FFF7A2FA4FF480715E48FDF78A
:1037C000A2FD4FF400715C48FDF79FFD59488078D9
:1037D000401EC1B25948FDF79FFD80215648FDF7B4
:1037E00094FD80215448FDF78EFD4FF4007152483E
:1037F000FDF789FD27E14F494889FFF77FFA4FF42C
:1038000080714D48FDF77FFD4FF400714A48FDF788
:103810007CFD00214948FDF77FFD80214648FDF7EA
:1038200074FD80214448FDF76EFD4FF4007142485D
:10383000FDF769FD4FF480713F48FDF764FD4FF4DB
:1038400000713D48FDF761FD00213C48FDF764FD36
:1038500080213948FDF759FD80213748FDF753FD98
:103860004FF400713448FDF74EFD4FF4807132483B
:10387000FDF749FD4FF400712F48FDF746FD2D4837
:103880000088401EC0F30F212C48FDF745FD802124
:103890002948FDF73AFD80212748FDF734FD4FF414
:1038A00000712548FDF72FFD4FF480712248FDF788
:1038B0002AFD4FF400712048FDF727FD1D480078D0
:1038C000401EC1B21D48FDF727FD80211A48FDF7B3
:1038D0001CFD80211848FDF716FD4FF400711648B5
:1038E000FDF711FD13498889FFF708FA4FF480713D
:1038F0001148FDF708FD4FF400710F48FDF705FD75
:1039000000210E48FDF708FD80210B48FDF7FDFC66
:1039100080210948FDF7F7FC4FF400710648FDF7D8
:10392000F2FC4FF480710448FDF7EDFC4FF4007198
:10393000014805E02803002000100140000C014070
:10394000FDF7E3FC0021FE48FDF7E6FC8021FD4881
:10395000FDF7DBFC8021FB48FDF7D5FC4FF400713F
:10396000F848FDF7D0FC4FF48071F648FDF7CBFC2A
:103970004FF40071F348FDF7C8FCF3484088401E3F
:10398000C0F30F21EE48FDF7C7FC8021ED48FDF79D
:10399000BCFC8021EB48FDF7B6FC4FF40071E94810
:1039A000FDF7B1FC4FF48071E648FDF7ACFC4FF435
:1039B0000071E448FDF7A9FCE3488078401EC1B2DD
:1039C000DF48FDF7A9FC8021DE48FDF79EFC802141
:1039D000DC48FDF798FC4FF40071DA48FDF793FCE2
:1039E00031E0082D1CD2DFE805F004070A0D0F12A4
:1039F000151844F0300413E044F0100410E044F0D3
:103A000020040DE000BF0BE044F0380408E044F06F
:103A1000280405E044F0180402E044F0080400BF64
:103A200000BFC948808848F68911884204D111270F
:103A300046F24000044302E0032744F48054214648
:103A40003846FFF7D2F9BDE8F08170B504460D465F
:103A500029462046FFF724FAFFF7F1F94FF4807169
:103A6000B848FDF750FC4FF40071B648FDF74DFC27
:103A7000B6480188B248FDF74FFC8021B148FDF7F8
:103A800044FC8021AF48FDF73EFC4FF40071AD4887
:103A9000FDF739FC70BD70B504460D461646AA48C0
:103AA000808849F24131884205D0A748808845F294
:103AB0001031884275D1A4494889FFF71FF94FF4A6
:103AC0008071A048FDF71FFC4FF400719D48FDF781
:103AD0001CFC21129A48FDF71FFC80219948FDF734
:103AE00014FC80219748FDF70EFC4FF400719548B7
:103AF000FDF709FC4FF480719248FDF704FC4FF488
:103B000000719048FDF701FCE1B28D48FDF704FC1F
:103B100080218C48FDF7F9FB80218A48FDF7F3FBF3
:103B20004FF400718748FDF7EEFB87498889FFF75E
:103B3000E5F84FF480718348FDF7E5FB4FF4007121
:103B40008048FDF7E2FB29127D48FDF7E5FB802167
:103B50007C48FDF7DAFB80217A48FDF7D4FB4FF46F
:103B600000717848FDF7CFFB4FF480717548FDF781
:103B7000CAFB4FF400717348FDF7C7FBE9B2704808
:103B8000FDF7CAFB80216F48FDF7BFFB80216D4820
:103B9000FDF7B9FB4FF400716A48FDF7B4FB2CE167
:103BA000FFE76948808845F2105188427ED1664916
:103BB0004889FFF7A3F84FF480716248FDF7A3FB33
:103BC0004FF400715F48FDF7A0FB21125C48FDF740
:103BD000A3FB80215B48FDF798FB80215948FDF746
:103BE00092FB4FF400715748FDF78DFB5649498908
:103BF000491C88B2FFF782F84FF480715148FDF7F5
:103C000082FB4FF400714F48FDF77FFBE1B24C4857
:103C1000FDF782FB80214B48FDF777FB8021494867
:103C2000FDF771FB4FF400714648FDF76CFB464908
:103C30008889FFF763F84FF480714248FDF763FB12
:103C40004FF400713F48FDF760FB29123C48FDF737
:103C500063FB80213B48FDF758FB80213948FDF785
:103C600052FB4FF400713748FDF74DFB3649898907
:103C7000491C88B2FFF742F84FF480713148FDF7D4
:103C800042FB4FF400712F48FDF73FFBE9B22C488F
:103C9000FDF742FB80212B48FDF737FB80212948A7
:103CA000FDF731FB4FF40071264800E002E0FDF71C
:103CB0002AFBA2E02448808846F6040188427CD191
:103CC00021488079012804D11F480088401E001B2C
:103CD00084B21D494889FFF711F84FF480711948E3
:103CE000FDF711FB4FF400711648FDF70EFB211292
:103CF0001348FDF711FB80211248FDF706FB8021D8
:103D00001048FDF700FB4FF400710E48FDF7FBFA79
:103D10004FF480710B48FDF7F6FA4FF40071094833
:103D2000FDF7F3FAE1B20648FDF7F6FA80210548FF
:103D3000FDF7EBFA80210348FDF7E5FA08E0000003
:103D4000000C014000100140280300203400002036
:103D50004FF40071FD48FDF7D6FAFD498889FEF75A
:103D6000CDFF4FF48071F948FDF7CDFA4FF40071A3
:103D7000F648FDF7CAFA2912F648FDF7CDFA802178
:103D8000F248FDF7C2FA8021F048FDF7BCFA4FF483
:103D90000071EE48FDF7B7FA4FF48071EB48FDF77C
:103DA000B2FA4FF40071E948FDF7AFFAE9B2E94819
:103DB000FDF7B2FA8021E54800E00BE0FDF7A5FA37
:103DC0008021E248FDF79FFA4FF40071DF48FDF7CC
:103DD0009AFA12E0DE488079012804D1DC48008894
:103DE000401E001B84B2DA4948892146FEF7FDFFD8
:103DF000D74988892946FEF7F8FF4FF48071D348E8
:103E0000FDF783FA4FF40071D048FDF77EFAD048F1
:103E10000189D048FDF780FA8021CC48FDF775FA7A
:103E20008021CA48FDF76FFA4FF40071C748FDF7CB
:103E30006AFA4FF48071C548FDF765FA4FF40071D6
:103E4000C248FDF762FA3146C248FDF765FA8021A3
:103E5000BE48FDF75AFA8021BC48FDF754FA4FF4EA
:103E60000071BA48FDF74FFA70BD10B50446002C3A
:103E700060D1B7498871F02008804FF4A070488065
:103E80000846808849F2413188420BD0B04880888A
:103E900046F60401884205D0AD48808845F21031CD
:103EA00088421AD12C20AA4908812A2048812B2037
:103EB00088810846808846F60401884205D0A448D7
:103EC000808845F21031884206D14FF4A070A04995
:103ED00008804FF4F070488095E09D48808848F64F
:103EE0008911884207D12220994908814E204881B2
:103EF0004F20888187E09648808845F2105188429B
:103F000010D14FF43050924908814FF42850488125
:103F10004FF42C5088814FF4F07008804FF44870B3
:103F2000488070E022208A49088120204881212091
:103F3000888168E00120864988714FF4A07008806C
:103F4000F02048800846808849F24131884205D0F7
:103F50007F48808845F21031884207D12C207C4967
:103F600008812A2048812B20888139E07848808880
:103F700046F60401884207D12C20754908812B2080
:103F800048812A2088812BE07148808848F6891171
:103F9000884207D122206E4908814F2048814E2057
:103FA00088811DE06A48808845F21051884210D10E
:103FB0004FF43050664908814FF4285048814FF43F
:103FC0002C5088814FF4487008804FF4F07048807E
:103FD00006E022205E490881212048812020888136
:103FE0005B48808846F60401884205D0584880889E
:103FF00045F21031884206D14FF4F07054490880E0
:104000004FF4A07048800020FFF72FFA10BD2DE973
:10401000FF5F04460D4616461F46A019401E86B295
:10402000E819401E87B24A48808849F241318842E7
:104030000BD04748808845F21031884205D044486B
:10404000808846F6040188427ED141494889FEF7BE
:1040500055FE4FF480713D48FDF755F94FF400715E
:104060003A48FDF752F921123A48FDF755F98021F7
:104070003648FDF74AF980213448FDF744F94FF4FA
:1040800000713248FDF73FF94FF480712F48FDF77A
:104090003AF94FF400712D48FDF737F9E1B22D4898
:1040A000FDF73AF980212948FDF72FF980212748AB
:1040B000FDF729F94FF400712448FDF724F94FF476
:1040C00080712248FDF71FF94FF400711F48FDF77A
:1040D0001CF931121F48FDF71FF980211B48FDF71D
:1040E00014F980211948FDF70EF94FF400711748B3
:1040F000FDF709F94FF480711448FDF704F94FF406
:1041000000711248FDF701F9F1B21248FDF704F908
:1041100080210E48FDF7F9F880210C48FDF7F3F8EF
:104120004FF400710948FDF7EEF809498889FEF758
:10413000E5FD4FF480710548FDF7E5F84FF4007197
:104140000248FDF7E2F807E069E0000000100140D6
:1041500028030020000C01402912FE48FDF7DCF87E
:104160008021FD48FDF7D1F88021FB48FDF7CBF811
:104170004FF40071F848FDF7C6F84FF48071F64827
:10418000FDF7C1F84FF40071F348FDF7BEF8E9B24E
:10419000F048FDF7C1F88021EF48FDF7B6F880211F
:1041A000ED48FDF7B0F84FF40071EB48FDF7ABF8C0
:1041B0004FF48071E848FDF7A6F84FF40071E64827
:1041C000FDF7A3F83912E348FDF7A6F88021E2488D
:1041D000FDF79BF88021E048FDF795F84FF400715A
:1041E000DD48FDF790F84FF48071DB48FDF78BF860
:1041F0004FF40071D848FDF788F8F9B2D548FDF7BB
:104200008BF88021D448FDF780F88021D248FDF753
:104210007AF84FF40071D048FDF775F853E1CF48B4
:10422000808845F2105188427DD1CC494889FEF7FB
:1042300065FD4FF48071C848FDF765F84FF40071D3
:10424000C548FDF762F82112C248FDF765F88021E4
:10425000C148FDF75AF88021BF48FDF754F84FF4E4
:104260000071BD48FDF74FF8BC494989491C88B227
:10427000FEF744FD4FF48071B748FDF744F84FF462
:104280000071B548FDF741F8E1B2B248FDF744F8D6
:104290008021B148FDF739F88021AF48FDF733F8A8
:1042A0004FF40071AC48FDF72EF8AC494989891CE0
:1042B00088B2FEF723FD4FF48071A748FDF723F87D
:1042C0004FF40071A448FDF720F83112A148FDF722
:1042D00023F88021A048FDF718F880219E48FDF7BB
:1042E00012F84FF400719C48FDF70DF89B4949897D
:1042F000C91C88B2FEF702FD4FF480719648FDF7A5
:1043000002F84FF400719448FCF7FFFFF1B29148B6
:10431000FDF702F880219048FCF7F7FF80218E48D6
:10432000FCF7F1FF00E087E04FF400718A48FCF7EA
:10433000EAFF8A498889FEF7E1FC4FF480718648DC
:10434000FCF7E1FF4FF400718348FCF7DEFF291210
:104350008048FCF7E1FF80217F48FCF7D6FF8021F1
:104360007D48FCF7D0FF4FF400717B48FCF7CBFF92
:104370007A498989491C88B2FEF7C0FC4FF48071E4
:104380007548FCF7C0FF4FF400717348FCF7BDFFA0
:10439000E9B27048FCF7C0FF80216F48FCF7B5FF19
:1043A00080216D48FCF7AFFF4FF400716A48FCF7BD
:1043B000AAFF6A498989891C88B2FEF79FFC4FF4DD
:1043C00080716548FCF79FFF4FF400716248FCF76D
:1043D0009CFF39125F48FCF79FFF80215E48FCF785
:1043E00094FF80215C48FCF78EFF4FF400715A481F
:1043F000FCF789FF59498989C91C88B2FEF77EFC00
:104400004FF480715448FCF77EFF4FF4007152481E
:10441000FCF77BFFF9B24F48FCF77EFF80214E4846
:10442000FCF773FF80214C48FCF76DFF4FF40071DF
:104430004948FCF768FF46E04848807901280ED1DA
:10444000A846B94645480088801B401E80B20090AF
:1044500042480088001B401E1FFA80FB03E0A04674
:10446000B1460095BB463D48808848F68911884290
:104470000DD14FF0440A4420039048EA09201FFA66
:1044800080F8C146452002904620019007E04FF099
:10449000500A51200390522002905320019041462F
:1044A0005046FEF7A2FC49460398FEF79EFC009991
:1044B0000298FEF79AFC59460198FEF796FC2946A9
:1044C0002046FEF7EDFCBDE8FF9F70B504460026D0
:1044D00022480588408845432048808846F60401E4
:1044E000884216D11D488079012812D100201B492D
:1044F00088712A2048812B20888100210846FEF7F8
:10450000CFFC0120154988712B2048812A20888101
:1045100003E000210846FEF7C3FCFEF790FC0026EE
:1045200022E04FF480710C48FCF7EDFE4FF400716F
:104530000948FCF7EAFE21460648FCF7EDFE80211B
:104540000548FCF7E2FE80210348FCF7DCFE4FF44F
:10455000007105E0000C014000100140280300201C
:10456000FE48FCF7D0FE761CAE42DAD370BD08B52B
:1045700001211920FCF7CCF90121F948FCF7E7FEED
:104580004FF4F860ADF8000010208DF80300032010
:104590008DF802006946F148FCF708FE4FF4F86117
:1045A000EE48FCF7B0FE4FF6FF70ADF8000069462C
:1045B000EC48FCF7FBFD4FF6FF71EA48FCF7A3FE61
:1045C0003220FEF720FA01210020FEF70EFC3220F7
:1045D000FEF719FA0020FEF72AFCE3498880084616
:1045E0008088FF280ADB084680884FF6FF718842E2
:1045F00004D0DD488088B0F5134F7CD1D320FEF77E
:104600007DFBFEF7B7FBFEF7B5FBFEF7B3FBD64924
:104610008880084680884FF6FF7101EA0020D24961
:104620008880FEF7A7FBD04989880843CE49888057
:104630000846808849F2413188426CD0BF20FEF79D
:104640005DFBFEF797FBFEF795FBFEF793FBFEF78E
:1046500091FBC5498880084680884FF6FF7101EAC2
:104660000020C1498880FEF785FBBF49898808433F
:10467000BD4988800846808846F6040188424AD0B1
:10468000D420FEF73BFBFEF775FBFEF773FBFEF74E
:1046900071FBB5498880084680884FF6FF7101EAB2
:1046A0000020B1498880FEF765FBAF49898808433F
:1046B000AD4988800846808845F2103188422AD06A
:1046C0004FF45A40FEF71AFBFEF754FB4FF45B40E1
:1046D000FEF714FBFEF74EFBA3498880084680884E
:1046E0004FF6FF7101EA00209F4988804FF45C403B
:1046F000FEF704FB00E00EE0FEF73CFB9A498988D8
:1047000008439949888008468088B0F5004F02D157
:1047100045F2105088809448818894A011F0B0FA36
:104720009148808849F2413188427CD1CF20FEF700
:10473000E5FA0020FEF700FBC120FEF7FDFA30206D
:10474000FEF7FAFAED20FEF7D9FA6420FEF7F4FA44
:104750000320FEF7F1FA1220FEF7EEFA8120FEF7B1
:10476000EBFAE820FEF7CAFA8520FEF7E5FA1020FA
:10477000FEF7E2FA7A20FEF7DFFACB20FEF7BEFA68
:104780003920FEF7D9FA2C20FEF7D6FA0020FEF7E2
:10479000D3FA3420FEF7D0FA0220FEF7CDFAF72044
:1047A000FEF7ACFA2020FEF7C7FAEA20FEF7A6FAD9
:1047B0000020FEF7C1FA0020FEF7BEFAC020FEF787
:1047C0009DFA1B20FEF7B8FAC120FEF797FA0120E8
:1047D000FEF7B2FAC520FEF791FA3020FEF7ACFAE8
:1047E0003020FEF7A9FAC720FEF788FAB720FEF7B7
:1047F000A3FA3620FEF782FA4820FEF79DFA3A2007
:10480000FEF77CFA5520FEF797FAB120FEF776FA0C
:104810000020FEF791FA1A20FEF78EFAB620FEF776
:104820006DFA0A2000E0A9E0FEF786FAA220FEF762
:1048300083FAF220FEF762FA0020FEF77DFA2620C6
:10484000FEF75CFA0120FEF777FAE020FEF756FA51
:104850000F20FEF771FA2A20FEF76EFA2820FEF7E5
:104860006BFA0820FEF768FA0E20FEF765FA0820BA
:10487000FEF762FA5420FEF75FFAA920FEF75CFA11
:104880004320FEF759FA0A20FEF756FA0F20FEF7EA
:1048900053FA0020FEF750FA0020FEF74DFA0020F0
:1048A000FEF74AFA0020FEF747FAE120FEF726FA63
:1048B0000020FEF741FA1520FEF73EFA1720FEF71A
:1048C0003BFA0720FEF738FA1120FEF735FA0620EA
:1048D000FEF732FA2B20FEF72FFA5620FEF72CFABD
:1048E0003C20FEF729FA0520FEF726FA1020FEF7F5
:1048F00023FA0F20FEF720FA3F20FEF71DFA3F2093
:10490000FEF71AFA0F20FEF717FA2B20FEF7F6F93A
:104910000020FEF711FA0020FEF70EFA0120FEF744
:104920000BFA3F20FEF708FA2A20FEF7E7F90020ED
:10493000FEF702FA0020FEF7FFF90020FEF7FCF96F
:10494000EF20FEF7F9F91120FEF7D8F97820FEF7ED
:104950005AF82920FEF7D2F903F00CBB00100140F1
:1049600000023000000C014028030020204C43448A
:104970002049443A25780D0A00000000FE4880884E
:1049800046F6040188427CD11120FEF7B7F91420C5
:10499000FEF739F8D020FEF7B1F90720FEF7CCF981
:1049A0004220FEF7C9F91D20FEF7C6F9D120FEF717
:1049B000A5F90020FEF7C0F91A20FEF7BDF909207D
:1049C000FEF7BAF9D220FEF799F90120FEF7B4F903
:1049D0002220FEF7B1F9C020FEF790F91020FEF773
:1049E000ABF93B20FEF7A8F90020FEF7A5F902205D
:1049F000FEF7A2F91120FEF79FF9C520FEF77EF918
:104A00000320FEF799F9C820FEF778F90020FEF799
:104A100093F92520FEF790F92120FEF78DF9052066
:104A2000FEF78AF90020FEF787F90A20FEF784F9DD
:104A30006520FEF781F92520FEF77EF97720FEF745
:104A40007BF95020FEF778F90F20FEF775F900206A
:104A5000FEF772F9F820FEF751F90120FEF76CF924
:104A6000FE20FEF74BF90020FEF766F90220FEF764
:104A700063F92020FEF742F93620FEF73FF90820BF
:104A800000E02CE0FEF758F93A20FEF737F9552000
:104A9000FEF752F92B20FEF731F90020FEF74CF912
:104AA0000020FEF749F90120FEF746F93F20FEF706
:104AB00043F92A20FEF722F90020FEF73DF90020F5
:104AC000FEF73AF90120FEF737F9DF20FEF734F957
:104AD0007820FDF798FF2920FEF710F93CE7A6485B
:104AE000808845F21031884240F07C87ED20FEF747
:104AF00005F90120FEF720F9FE20FEF71DF9EE2052
:104B0000FEF7FCF8DE20FEF717F92120FEF714F976
:104B1000F120FEF7F3F80120FEF70EF9DF20FEF793
:104B2000EDF81020FEF708F9C420FEF7E7F88F2013
:104B3000FEF702F9C620FEF7E1F80020FEF7FCF8C8
:104B4000E220FEF7F9F8E220FEF7F6F8E220FEF7A1
:104B5000F3F8BF20FEF7D2F8AA20FEF7EDF8B02058
:104B6000FEF7CCF80D20FEF7E7F80020FEF7E4F89A
:104B70000D20FEF7E1F80020FEF7DEF81120FEF729
:104B8000DBF80020FEF7D8F81920FEF7D5F8002052
:104B9000FEF7D2F82120FEF7CFF80020FEF7CCF880
:104BA0002D20FEF7C9F80020FEF7C6F83D20FEF7DD
:104BB000C3F80020FEF7C0F85D20FEF7BDF8002026
:104BC000FEF7BAF85D20FEF7B7F80020FEF7B4F85C
:104BD000B120FEF793F88020FEF7AEF80020FEF734
:104BE000ABF88B20FEF7A8F80020FEF7A5F896207A
:104BF000FEF7A2F80020FEF79FF8B220FEF77EF83D
:104C00000020FEF799F80020FEF796F80220FEF744
:104C100093F80020FEF790F80320FEF78DF80020AF
:104C2000FEF78AF8B320FEF769F80020FEF784F853
:104C30000020FEF781F80020FEF77EF80020FEF746
:104C40007BF80020FEF778F80020FEF775F80020CA
:104C5000FEF772F80020FEF76FF80020FEF76CF800
:104C60000020FEF769F80020FEF766F80020FEF746
:104C700063F80020FEF760F80020FEF75DF80020E2
:104C8000FEF75AF80020FEF757F80020FEF754F818
:104C90000020FEF751F80020FEF74EF80020FEF746
:104CA0004BF80020FEF748F80020FEF745F80020FA
:104CB000FEF742F80020FEF73FF8B420FEF71EF89A
:104CC0008B20FEF739F80020FEF736F89620FEF725
:104CD00033F80020FEF730F8A120FEF72DF8002071
:104CE000FEF72AF8B520FEF709F80220FEF724F8AF
:104CF0000020FEF721F80320FEF71EF80020FEF743
:104D00001BF80420FEF718F80020FEF715F8B6206F
:104D1000FDF7F4FF0020FEF70FF80020FEF70CF877
:104D2000B720FDF7EBFF0020FEF706F80020FEF7A6
:104D300003F83F20FEF700F80020FDF7FDFF5E209E
:104D4000FDF7FAFF0020FDF7F7FF6420FDF7F4FF01
:104D50000020FDF7F1FF8C20FDF7EEFF0020FDF7AE
:104D6000EBFFAC20FDF7E8FF0020FDF7E5FFDC20BE
:104D7000FDF7E2FF002001E028030020FDF7DCFF43
:104D80007020FDF7D9FF0020FDF7D6FF9020FDF73A
:104D9000D3FF0020FDF7D0FFEB20FDF7CDFF002073
:104DA000FDF7CAFFDC20FDF7C7FF0020FDF7C4FFB9
:104DB000B820FDF7A3FF0020FDF7BEFF0020FDF7A0
:104DC000BBFF0020FDF7B8FF0020FDF7B5FF002076
:104DD000FDF7B2FF0020FDF7AFFF0020FDF7ACFFAD
:104DE0000020FDF7A9FFBA20FDF788FF2420FDF77A
:104DF000A3FF0020FDF7A0FF0020FDF79DFF00208E
:104E0000FDF79AFFC120FDF779FF2020FDF794FF01
:104E10000020FDF791FF5420FDF78EFF0020FDF7E5
:104E20008BFFFF20FDF788FF0020FDF785FFC220E4
:104E3000FDF764FF0A20FDF77FFF0020FDF77CFFF0
:104E40000420FDF779FF0020FDF776FFC320FDF772
:104E500055FF3C20FDF770FF0020FDF76DFF3A2065
:104E6000FDF76AFF0020FDF767FF3920FDF764FFBB
:104E70000020FDF761FF3720FDF75EFF0020FDF702
:104E80005BFF3C20FDF758FF0020FDF755FF362063
:104E9000FDF752FF0020FDF74FFF3220FDF74CFFDA
:104EA0000020FDF749FF2F20FDF746FF0020FDF70A
:104EB00043FF2C20FDF740FF0020FDF73DFF292098
:104EC000FDF73AFF0020FDF737FF2620FDF734FFFE
:104ED0000020FDF731FF2420FDF72EFF0020FDF715
:104EE0002BFF2420FDF728FF0020FDF725FF2320BE
:104EF000FDF722FF0020FDF71FFF3C20FDF71CFF00
:104F00000020FDF719FF3620FDF716FF0020FDF702
:104F100013FF3220FDF710FF0020FDF70DFF2F20BB
:104F2000FDF70AFF0020FDF707FF2C20FDF704FF27
:104F30000020FDF701FF2920FDF7FEFE0020FDF710
:104F4000FBFE2620FDF7F8FE0020FDF7F5FE2420ED
:104F5000FDF7F2FE0020FDF7EFFE2420FDF7ECFE4A
:104F60000020FDF7E9FE2320FDF7E6FE0020FDF717
:104F7000E3FEC420FDF7C2FE6220FDF7DDFE002047
:104F8000FDF7DAFE0520FDF7D7FE0020FDF7D4FE81
:104F90008420FDF7D1FE0020FDF7CEFEF020FDF7C6
:104FA000CBFE0020FDF7C8FE1820FDF7C5FE00204F
:104FB000FDF7C2FEA420FDF7BFFE0020FDF7BCFEFA
:104FC0001820FDF7B9FE0020FDF7B6FE5020FDF7D2
:104FD000B3FE0020FDF7B0FE0C20FDF7ADFE002073
:104FE000FDF7AAFE1720FDF7A7FE0020FDF7A4FE9F
:104FF0009520FDF7A1FE0020FDF79EFEF320FDF7B2
:105000009BFE0020FDF798FEE620FDF795FE0020B0
:10501000FDF792FEC520FDF771FE3220FDF78CFEF4
:105020000020FDF789FE4420FDF786FE0020FDF7F5
:1050300083FE6520FDF780FE0020FDF77DFE7620D3
:10504000FDF77AFE0020FDF777FE8820FDF774FE5D
:105050000020FDF771FEC620FDF750FE2020FDF771
:105060006BFE0020FDF768FE1720FDF765FE0020AF
:10507000FDF762FE0120FDF75FFE0020FDF75CFEFC
:10508000C720FDF73BFE0020FDF756FE0020FDF790
:1050900053FE0020FDF750FE0020FDF74DFEC82016
:1050A000FDF72CFE0020FDF747FE0020FDF744FE33
:1050B0000020FDF741FE0020FDF73EFEC920FDF770
:1050C0001DFE0020FDF738FE0020FDF735FE002014
:1050D000FDF732FE0020FDF72FFE0020FDF72CFE2D
:1050E0000020FDF729FE0020FDF726FE0020FDF739
:1050F00023FE0020FDF720FE0020FDF71DFE00200E
:10510000FDF71AFE0020FDF717FE0020FDF714FE44
:105110000020FDF711FE0020FDF70EFE0020FDF738
:105120000BFEE020FDF7EAFD1620FDF705FE00204E
:10513000FDF702FE1C20FDF7FFFD0020FDF7FCFD42
:105140002120FDF7F9FD0020FDF7F6FD3620FDF7E3
:10515000F3FD0020FDF7F0FD4620FDF7EDFD0020FA
:10516000FDF7EAFD5220FDF7E7FD0020FDF7E4FD25
:105170006420FDF7E1FD0020FDF7DEFD7A20FDF75C
:10518000DBFD0020FDF7D8FD8B20FDF7D5FD0020CD
:10519000FDF7D2FD9920FDF7CFFD0020FDF7CCFDF6
:1051A000A820FDF7C9FD0020FDF7C6FDB920FDF7D9
:1051B000C3FD0020FDF7C0FDC420FDF7BDFD0020AC
:1051C000FDF7BAFDCA20FDF7B7FD0020FDF7B4FDDD
:1051D000D220FDF7B1FD0020FDF7AEFDD920FDF78F
:1051E000ABFD0020FDF7A8FDE020FDF7A5FD0020A8
:1051F000FDF7A2FDF320FDF79FFD0020FDF79CFDCC
:10520000E120FDF77BFD1620FDF796FD0020FDF760
:1052100093FD1C20FDF790FD0020FDF78DFD222061
:10522000FDF78AFD0020FDF787FD3620FDF784FDA0
:105230000020FDF781FD4520FDF77EFD0020FDF7F4
:105240007BFD5220FDF778FD0020FDF775FD642001
:10525000FDF772FD0020FDF76FFD7A20FDF76CFD74
:105260000020FDF769FD8B20FDF766FD0020FDF7AE
:1052700063FD9920FDF760FD0020FDF75DFDA8208E
:10528000FDF75AFD0020FDF757FDB920FDF754FD4D
:105290000020FDF751FDC420FDF74EFD0020FDF775
:1052A0004BFDCA20FDF748FD0020FDF745FDD2204B
:1052B000FDF742FD0020FDF73FFDD820FDF73CFD46
:1052C0000020FDF739FDE020FDF736FD0020FDF759
:1052D00033FDF320FDF730FD0020FDF72DFDE2202A
:1052E000FDF70CFD0520FDF727FD0020FDF724FD4F
:1052F0000B20FDF721FD0020FDF71EFD1B20FDF713
:105300001BFD0020FDF718FD3420FDF715FD0020E2
:10531000FDF712FD4420FDF70FFD0020FDF70CFD09
:105320004F20FDF709FD0020FDF706FD6120FDF788
:1053300003FD0020FDF700FD7920FDF7FDFC0020B6
:10534000FDF7FAFC8820FDF7F7FC0020FDF7F4FCE0
:105350009720FDF7F1FC0020FDF7EEFCA620FDF7FD
:10536000EBFC0020FDF7E8FCB720FDF7E5FC002092
:10537000FDF7E2FCC220FDF7DFFC0020FDF7DCFCBE
:10538000C720FDF7D9FC0020FDF7D6FCD120FDF7A2
:10539000D3FC0020FDF7D0FCD620FDF7CDFC00208B
:1053A000FDF7CAFCDD20FDF7C7FC0020FDF7C4FCBB
:1053B000F320FDF7C1FC0020FDF7BEFCE320FDF764
:1053C0009DFC0520FDF7B8FC0020FDF7B5FC0A2088
:1053D000FDF7B2FC0020FDF7AFFC1C20FDF7ACFC94
:1053E0000020FDF7A9FC3320FDF7A6FC0020FDF707
:1053F000A3FC4420FDF7A0FC0020FDF79DFC5020FD
:10540000FDF79AFC0020FDF797FC6220FDF794FC65
:105410000020FDF791FC7820FDF78EFC0020FDF7C1
:105420008BFC8820FDF788FC0020FDF785FC972089
:10543000FDF782FC0020FDF77FFCA620FDF77CFC39
:105440000020FDF779FCB720FDF776FC0020FDF782
:1054500073FCC220FDF770FC0020FDF76DFCC72037
:10546000FDF76AFC0020FDF767FCD120FDF764FC26
:105470000020FDF761FCD520FDF75EFC0020FDF764
:105480005BFCDD20FDF758FC0020FDF755FCF32008
:10549000FDF752FC0020FDF74FFCE420FDF72EFC49
:1054A0000120FDF749FC0020FDF746FC0120FDF737
:1054B00043FC0020FDF740FC0220FDF73DFC0020EE
:1054C000FDF73AFC2A20FDF737FC0020FDF734FCFD
:1054D0003C20FDF731FC0020FDF72EFC4B20FDF7B2
:1054E0002BFC0020FDF728FC5D20FDF725FC0020AB
:1054F000FDF722FC7420FDF71FFC0020FDF71CFCCB
:105500008420FDF719FC0020FDF716FC9320FDF721
:1055100013FC0020FDF710FCA220FDF70DFC00207D
:10552000FDF70AFCB320FDF707FC0020FDF704FCA3
:10553000BE20FDF701FC0020FDF7FEFBC420FDF7B7
:10554000FBFB0020FDF7F8FBCD20FDF7F5FB00206D
:10555000FDF7F2FBD320FDF7EFFB0020FDF7ECFB9E
:10556000DD20FDF7E9FB0020FDF7E6FBF320FDF76A
:10557000E3FB0020FDF7E0FBE520FDF7BFFB00208B
:10558000FDF7DAFB0020FDF7D7FB0020FDF7D4FB89
:105590000020FDF7D1FB0220FDF7CEFB0020FDF738
:1055A000CBFB2920FDF7C8FB0020FDF7C5FB3C2005
:1055B000FDF7C2FB0020FDF7BFFB4B20FDF7BCFB56
:1055C0000020FDF7B9FB5D20FDF7B6FB0020FDF7DD
:1055D000B3FB7420FDF7B0FB0020FDF7ADFB84208A
:1055E000FDF7AAFB0020FDF7A7FB9320FDF7A4FB26
:1055F0000020FDF7A1FBA220FDF79EFB0020FDF798
:105600009BFBB320FDF798FB0020FDF795FBBE2028
:10561000FDF792FB0020FDF78FFBC420FDF78CFB0C
:105620000020FDF789FBCD20FDF786FB0020FDF76C
:1056300083FBD320FDF780FB0020FDF77DFBDC2002
:10564000FDF77AFB0020FDF777FBF320FDF774FBF5
:105650000020FDF771FBE620FDF750FB1120FDF760
:105660006BFB0020FDF768FB3420FDF765FB002095
:10567000FDF762FB5620FDF75FFB0020FDF75CFBAA
:105680007620FDF759FB0020FDF756FB7720FDF74C
:1056900053FB0020FDF750FB6620FDF74DFB00207B
:1056A000FDF74AFB8820FDF747FB0020FDF744FB90
:1056B0009920FDF741FB0020FDF73EFBBB20FDF7E5
:1056C0003BFB0020FDF738FB9920FDF735FB002060
:1056D000FDF732FB6620FDF72FFB0020FDF72CFBCA
:1056E0005520FDF729FB0020FDF726FB5520FDF78F
:1056F00023FB0020FDF720FB4520FDF71DFB0020CC
:10570000FDF71AFB4320FDF717FB0020FDF714FB04
:105710004420FDF711FB0020FDF70EFBE720FDF70D
:10572000EDFA3220FDF708FB0020FDF705FB5520C0
:10573000FDF702FB0020FDF7FFFA7620FDF7FCFAEB
:105740000020FDF7F9FA6620FDF7F6FA0020FDF7D4
:10575000F3FA6720FDF7F0FA0020FDF7EDFA672075
:10576000FDF7EAFA0020FDF7E7FA8720FDF7E4FAF3
:105770000020FDF7E1FA9920FDF7DEFA0020FDF7A1
:10578000DBFABB20FDF7D8FA0020FDF7D5FA992007
:10579000FDF7D2FA0020FDF7CFFA7720FDF7CCFA1B
:1057A0000020FDF7C9FA4420FDF7C6FA0020FDF7F6
:1057B000C3FA5620FDF7C0FA0020FDF7BDFA2320FA
:1057C000FDF7BAFA0020FDF7B7FA3320FDF7B4FA77
:1057D0000020FDF7B1FA4520FDF7AEFA0020FDF7F5
:1057E000ABFAE820FDF78AFA0020FDF7A5FA0020C1
:1057F000FDF7A2FA9920FDF79FFA0020FDF79CFA29
:105800008720FDF799FA0020FDF796FA8820FDF72A
:1058100093FA0020FDF790FA7720FDF78DFA00202B
:10582000FDF78AFA6620FDF787FA0020FDF784FA73
:105830008820FDF781FA0020FDF77EFAAA20FDF707
:105840007BFA0020FDF778FABB20FDF775FA0020FF
:10585000FDF772FA9920FDF76FFA0020FDF76CFA58
:105860006620FDF769FA0020FDF766FA5520FDF77E
:1058700063FA0020FDF760FA5520FDF75DFA00207D
:10588000FDF75AFA4420FDF757FA0020FDF754FAC5
:105890004420FDF751FA0020FDF74EFA5520FDF7A0
:1058A0004BFA0020FDF748FAE920FDF727FAAA2075
:1058B000FDF742FA0020FDF73FFA0020FDF73CFA21
:1058C0000020FDF739FA0020FDF718FAAA20FDF7AD
:1058D00033FACF20FDF712FA0020FDF72DFA002051
:1058E000FDF72AFA0020FDF727FA0020FDF724FA39
:1058F0000020FDF721FA0020FDF71EFA0020FDF739
:105900001BFA0020FDF718FA0020FDF715FA002019
:10591000FDF712FA0020FDF70FFA0020FDF70CFA50
:105920000020FDF709FA0020FDF706FA0020FDF738
:1059300003FA0020FDF700FA0020FDF7FDF9F02042
:10594000FDF7DCF90020FDF7F7F95020FDF7F4F939
:105950000020FDF7F1F90020FDF7EEF90020FDF73A
:10596000EBF9F320FDF7CAF90020FDF7E5F9F9207E
:10597000FDF7C4F90620FDF7DFF91020FDF7DCF98B
:105980002920FDF7D9F90020FDF7D6F93A20FDF7D7
:10599000B5F95520FDF7D0F91120FDF7AFF96420D6
:1059A000FDF731F82920FDF7A9F93520FDF7A6F913
:1059B0000020FDF7C1F95120FDF7A0F9FF20FDF708
:1059C000BBF95320FDF79AF92C20FDF7B5F95520C6
:1059D000FDF794F98220FDF7AFF92C20FDF78EF941
:1059E00002F0C8BAFE48808845F2105188427DD145
:1059F00055214FF47040FDF7F8F9AA214FF201004C
:105A0000FDF7F3F952214FF20200FDF7EEF90821FC
:105A10004FF20300FDF7E9F901214FF20400FDF711
:105A2000E4F90D214FF43040FDF7DFF90D214BF281
:105A30000100FDF7DAF90D214BF20200FDF7D5F96F
:105A400034214FF43640FDF7D0F934214BF2016098
:105A5000FDF7CBF934214BF20260FDF7C6F90D21B9
:105A60004FF43140FDF7C1F90D214BF20110FDF764
:105A7000BCF90D214BF20210FDF7B7F934214FF4B8
:105A80003740FDF7B2F934214BF20170FDF7ADF963
:105A900034214BF20270FDF7A8F900214FF4324097
:105AA000FDF7A3F900214BF20120FDF79EF900213B
:105AB0004BF20220FDF799F924214FF43840FDF70D
:105AC00094F924214BF60100FDF78FF924214BF6C0
:105AD0000200FDF78AF901214FF43F40FDF785F9F7
